:100000000C942A000C94BA1E0C9447000C944700E0
:100010000C9447000C9447000C9447000C94470044
:100020000C9447000C9447000C94271A0C949A19CE
:100030000C9447000C9447000C9447000C94470024
:100040000C9447000C9447000C9447000C94470014
:100050000C94470011241FBECFE5D8E0DEBFCDBF12
:1000600013E0A0E6B0E0EAE9F3E602C005900D92E5
:10007000AA38B107D9F713E0AAE8B3E001C01D928E
:10008000A439B107E1F70E94862E0C94CB310C9471
:100090000000EF92FF920F931F937B018C0120E0F1
:1000A00030E040E05FE40E94490388238CF0C801FF
:1000B000B70120E030E040E05FE40E94C1010E940F
:1000C000A9039B01AC01205030404040504806C07D
:1000D000C801B7010E94A9039B01AC01B901CA0183
:1000E0001F910F91FF90EF900895A0E0B0E0EBE733
:1000F000F0E00C94E62EDC012B01FA019C91923089
:1001000008F439C1EB018881823008F433C194309E
:1001100069F4843009F02FC111969C91119789815F
:10012000981709F428C1A9E5B3E025C1843009F482
:1001300021C18230A9F4923009F01DC19A01AD01AC
:1001400088E0EA010990AE01E90109929E0181501F
:10015000C1F7E201898111969C918923818308C1AD
:10016000923009F407C112962D903C901397EB0141
:100170008A819B811496AD90BD90CD90DC901797AD
:10018000EC80FD800E811F819101281B390BB90184
:1001900037FF04C066277727621B730B6032710537
:1001A0000CF061C0121613066CF537014801062EDB
:1001B00004C096948794779467940A94D2F721E0C8
:1001C00030E040E050E004C0220F331F441F551FB1
:1001D0006A95D2F721503040404050402E213F21B7
:1001E00040235123211531054105510521F021E01E
:1001F00030E040E050E079018A01E628F72808293C
:1002000019293CC0232BD1F1260E371E350146019A
:10021000062E04C096948794779467940A94D2F734
:1002200021E030E040E050E004C0220F331F441FC3
:10023000551F6A95D2F721503040404050402A2146
:100240003B214C215D21211531054105510521F04E
:1002500021E030E040E050E059016A01A628B728CB
:10026000C828D9280BC0821593052CF01C01AA249C
:10027000BB24650103C0EE24FF24870111969C91E5
:10028000D20111968C91981709F445C0992339F041
:10029000A80197012A193B094C095D0906C0A6016E
:1002A00095012E193F09400B510B57FD08C01182D3
:1002B0003382228224833583468357831DC081E0A5
:1002C00081833382228288279927DC01821B930B4A
:1002D000A40BB50B84839583A683B7830DC0220F2F
:1002E000331F441F551F24833583468357838281E0
:1002F000938101979383828324813581468157813D
:10030000DA01C9010197A109B1098F5F9F4FAF4F72
:10031000BF4328F30BC0918333822282EA0CFB1C7B
:100320000C1D1D1DE482F5820683178383E0808304
:10033000248135814681578157FF1AC0C901AA27F8
:1003400097FDA095BA2F81709070A070B0705695EF
:10035000479537952795822B932BA42BB52B848318
:100360009583A683B7838281938101969383828349
:10037000DF0101C0D201CD01CDB7DEB7E2E10C94BF
:10038000022FA0E2B0E0E7ECF1E00C94F22E6983DA
:100390007A838B839C832D833E834F835887E9E048
:1003A000EE2EF12CEC0EFD1ECE010196B7010E943F
:1003B000D2048E010F5E1F4FCE010596B8010E9438
:1003C000D2048A8991E089278A8BC701B801AE01DE
:1003D000475E5F4F0E9475000E94FD03A096E6E015
:1003E0000C940E2FA0E2B0E0E8EFF1E00C94F22EB6
:1003F00069837A838B839C832D833E834F835887C5
:10040000F9E0EF2EF12CEC0EFD1ECE010196B701A6
:100410000E94D2048E010F5E1F4FCE010596B801D7
:100420000E94D204C701B801AE01475E5F4F0E942F
:1004300075000E94FD03A096E6E00C940E2FA0E24A
:10044000B0E0E5E2F2E00C94E62E69837A838B83D8
:100450009C832D833E834F835887CE010196BE0136
:10046000675F7F4F0E94D204CE010596BE016F5E8A
:100470007F4F0E94D2049985923088F0898982301A
:10048000C8F0943019F4823051F404C0843029F457
:10049000923081F489E593E0C6C0923049F420E0BF
:1004A0009A858A89981321E02A87CE010996BBC0D4
:1004B000823049F420E09A858A89981321E02A8BBA
:1004C000CE014196B0C02D843E844F8458886D88FB
:1004D0007E888F88988CEE24FF248701AA24BB2471
:1004E000650140E050E060E070E0E0E0F0E0C10174
:1004F00081709070892BE9F0E60CF71C081D191D1E
:100500009A01AB012A0D3B1D4C1D5D1D80E090E062
:10051000A0E0B0E0E614F7040805190520F481E036
:1005200090E0A0E0B0E0BA01A901480F591F6A1F8E
:100530007B1FAA0CBB1CCC1CDD1C97FE08C081E0F5
:1005400090E0A0E0B0E0A82AB92ACA2ADB2A3196B6
:10055000E032F10549F0660C771C881C991C569412
:10056000479437942794C3CFFA85EA892B893C892D
:100570008B859C85280F391F2E5F3F4F17C0CA01FE
:1005800081709070892B61F016950795F794E79428
:1005900080E090E0A0E0B0E8E82AF92A0A2B1B2BC3
:1005A00076956795579547952F5F3F4F77FDE7CF36
:1005B0000CC0440F551F661F771F17FD4160EE0CDE
:1005C000FF1C001F111F21503040403090E05907A0
:1005D00090E0690790E4790760F32B8F3C8FDB0193
:1005E000CA018F779070A070B07080349105A1051A
:1005F000B10561F447FD0AC0E114F10401051105DC
:1006000029F0405C5F4F6F4F7F4F40781A8EFE1786
:1006100011F081E08A8F4D8F5E8F6F8F78A383E01A
:10062000898FCE0149960E94FD03A096E2E10C94C9
:10063000022FA8E1B0E0EFE1F3E00C94F22E698321
:100640007A838B839C832D833E834F83588789E0F5
:10065000E82EF12CEC0EFD1ECE010196B7010E9492
:10066000D2048E010F5E1F4FCE010596B8010E9485
:10067000D2048985823040F08989823028F0C70110
:10068000B8010E944A0501C08FEF6896E6E00C941D
:100690000E2FA8E1B0E0EFE4F3E00C94F22E6983B2
:1006A0007A838B839C832D833E834F83588789E095
:1006B000E82EF12CEC0EFD1ECE010196B7010E9432
:1006C000D2048E010F5E1F4FCE010596B8010E9425
:1006D000D2048985823040F08989823028F0C701B0
:1006E000B8010E944A0501C08FEF6896E6E00C94BD
:1006F0000E2FA8E1B0E0EFE7F3E00C94F22E69834F
:100700007A838B839C832D833E834F83588789E034
:10071000E82EF12CEC0EFD1ECE010196B7010E94D1
:10072000D2048E010F5E1F4FCE010596B8010E94C4
:10073000D2048985823040F08989823028F0C7014F
:10074000B8010E944A0501C081E06896E6E00C9479
:100750000E2FACE0B0E0EFEAF3E00C94F62E6983E4
:100760007A838B839C83CE010196BE016B5F7F4FA2
:100770000E94D2048D81823061F1823050F1843048
:1007800021F48E81882351F12EC02F81388537FDC9
:1007900020C06E812F3131051CF06623F9F023C093
:1007A0008EE190E0821B930B29853A854B855C8511
:1007B00004C056954795379527958A95D2F76623B5
:1007C000B1F050954095309521953F4F4F4F5F4F79
:1007D0000EC020E030E040E050E009C02FEF3FEFD6
:1007E0004FEF5FE704C020E030E040E050E8B9019F
:1007F000CA012C96E2E00C94122FDF92EF92FF9246
:100800000F931F93FC01E480F58006811781D1804E
:100810008081823048F480E090E0A0E1B0E0E82AF6
:10082000F92A0A2B1B2BA5C0843009F49FC0823003
:1008300021F4EE24FF24870105C0E114F104010531
:10084000110519F4E0E0F0E096C0628173819FEF3A
:10085000623879070CF05BC022E83FEF261B370BAC
:100860002A3131052CF020E030E040E050E02AC091
:10087000B801A701022E04C0769567955795479554
:100880000A94D2F781E090E0A0E0B0E004C0880FC5
:10089000991FAA1FBB1F2A95D2F70197A109B10979
:1008A0008E219F21A023B1230097A105B10521F03E
:1008B00081E090E0A0E0B0E09A01AB01282B392B59
:1008C0004A2B5B2BDA01C9018F779070A070B07052
:1008D00080349105A105B10539F427FF09C0205CDA
:1008E0003F4F4F4F5F4F04C0215C3F4F4F4F5F4F13
:1008F000E0E0F0E02030A0E03A07A0E04A07A0E402
:100900005A0710F0E1E0F0E079018A0127C0603871
:10091000710564F5FB01E158FF4FD801C7018F77DE
:100920009070A070B07080349105A105B10539F4C4
:10093000E7FE0DC080E490E0A0E0B0E004C08FE3EB
:1009400090E0A0E0B0E0E80EF91E0A1F1B1F17FFA1
:1009500005C016950795F794E794319687E01695AC
:100960000795F794E7948A95D1F705C0EE24FF2404
:100970008701EFEFF0E06E2F679566276795902F60
:100980009F77D794DD24D7948E2F8695492F462BB9
:10099000582F5D29B701CA011F910F91FF90EF9069
:1009A000DF900895FC01DB01408151812281622F9B
:1009B0006F7770E0221F2227221F9381892F880FD3
:1009C000822B282F30E0991F9927991F11969C930D
:1009D000119721153105A9F54115510561057105DD
:1009E00011F482E037C082E89FEF13969C938E93B8
:1009F00012979A01AB0167E0220F331F441F551F66
:100A00006A95D1F783E08C930DC0220F331F441FEA
:100A1000551F12968D919C911397019713969C9355
:100A20008E931297203080E0380780E0480780E4FA
:100A3000580758F314962D933D934D935C93179755
:100A400008952F3F310579F4411551056105710570
:100A500019F484E08C93089564FF03C081E08C93C3
:100A600012C01C9210C02F57304013963C932E9307
:100A7000129783E08C9387E0440F551F661F771F02
:100A80008A95D1F7706414964D935D936D937C9322
:100A9000179708951F93DC01FB019C91923008F495
:100AA00047C08081823008F443C0943051F41196DD
:100AB0001C91843099F58181682F70E0611B710968
:100AC0003FC0843021F0923031F48230B9F181811D
:100AD000882389F12DC011961C9111978230F1F075
:100AE00081811817D9F412962D913C911397828128
:100AF00093818217930794F028173907BCF0149656
:100B00008D919D910D90BC91A02D248135814681C0
:100B10005781281739074A075B0718F4112341F05A
:100B20000AC082179307A407B50740F4112319F0F0
:100B300061E070E005C06FEF7FEF02C060E070E041
:100B4000CB011F9108950F931F93DF93CF93CDB7E0
:100B5000DEB7C153D2400FB6F894DEBF0FBECDBF93
:100B6000FE01EB5CFE4F1082FE01EC5CFE4F10823A
:100B7000FE01ED5CFE4F83E08083FE01EE5CFE4FE4
:100B800083E08083FE01E05DFE4F8AE090E0918388
:100B900080830E94A8290E9487280E9493280E948F
:100BA0009F280E94F42C0E9464220E94AB280E947D
:100BB000822A0E9453190E94E0190E940B170E947A
:100BC00062290E94972980ED90E00E94C0170E9440
:100BD000F42B80E060E00E940E2D86ED90E00E94F4
:100BE0006D2DFE01ED5DFE4F80E090E0AAE7B4E4DC
:100BF00080839183A283B3838E01015E1E4FFE0129
:100C0000ED5DFE4F608171818281938120E030E053
:100C10004AEF54E40E941F02DC01CB01F8018083FB
:100C20009183A283B383FE01E15EFE4F60817181F7
:100C30008281938120E030E040E85FE30E94790305
:100C4000882344F4FE01E35EFE4F81E090E091834F
:100C5000808364C0FE01E15EFE4F6081718182810C
:100C6000938120E03FEF4FE757E40E9419031816E5
:100C70000CF043C0FE01ED5DFE4F60817181828109
:100C8000938120E030E040E251E40E941F02DC0149
:100C9000CB018E01035E1E4FBC01CD010E944900B5
:100CA000DC01CB01F801918380831FC0FE01E55E6A
:100CB000FE4F88EC90E091838083FE01E55EFE4F5D
:100CC000808191810197F1F7FE01E55EFE4F9183EE
:100CD0008083DE01A35EBE4FFE01E35EFE4F808196
:100CE0009181019711969C938E93FE01E35EFE4FD6
:100CF000808191810097D1F627C08E01035E1E4F3F
:100D0000FE01E15EFE4F60817181828193810E94CC
:100D10004900DC01CB01F80191838083DE01A75EED
:100D2000BE4FFE01E35EFE4F808191818D939C93C7
:100D3000FE01E75EFE4F808191810197F1F7FE0190
:100D4000E75EFE4F918380838FED90E00E949517C0
:100D5000FE01EB5EFE4F80E090E0AAEFB4E48083FA
:100D60009183A283B3838E010F5E1E4FFE01EB5E63
:100D7000FE4F608171818281938120E030E04AEFF3
:100D800054E40E941F02DC01CB01F80180839183AF
:100D9000A283B383FE01EF5EFE4F60817181828189
:100DA000938120E030E040E85FE30E9479038823EC
:100DB00044F4FE01E15FFE4F81E090E09183808387
:100DC00064C0FE01EF5EFE4F60817181828193817C
:100DD00020E03FEF4FE757E40E94190318160CF08C
:100DE00043C0FE01EB5EFE4F608171818281938181
:100DF00020E030E040E251E40E941F02DC01CB0120
:100E00008E01015F1E4FBC01CD010E944900DC0133
:100E1000CB01F801918380831FC0FE01E35FFE4F89
:100E200088EC90E091838083FE01E35FFE4F808138
:100E300091810197F1F7FE01E35FFE4F918380837B
:100E4000DE01A15FBE4FFE01E15FFE4F8081918117
:100E5000019711969C938E93FE01E15FFE4F808176
:100E600091810097D1F627C08E01015F1E4FFE01D0
:100E7000EF5EFE4F60817181828193810E94490003
:100E8000DC01CB01F80191838083DE01A55FBE4FB9
:100E9000FE01E15FFE4F808191818D939C93FE0165
:100EA000E55FFE4F808191810197F1F7FE01E55FDB
:100EB000FE4F918380830E94FE2D8BEF90E00E9475
:100EC0006D2DFE01E95FFE4F80E090E0AAEFB4E4F3
:100ED00080839183A283B3838E010D5F1E4FFE0139
:100EE000E95FFE4F608171818281938120E030E073
:100EF0004AEF54E40E941F02DC01CB01F801808319
:100F00009183A283B383FE01ED5FFE4F6081718107
:100F10008281938120E030E040E85FE30E94790322
:100F2000882344F4FE01EF5FFE4F81E090E091835F
:100F3000808364C0FE01ED5FFE4F6081718182811C
:100F4000938120E03FEF4FE757E40E941903181602
:100F50000CF043C0FE01E95FFE4F60817181828128
:100F6000938120E030E040E251E40E941F02DC0166
:100F7000CB018E010F5F1E4FBC01CD010E944900C5
:100F8000DC01CB01F801918380831FC0FE01E15099
:100F9000FF4F88EC90E091838083FE01E150FF4F8A
:100FA000808191810197F1F7FE01E150FF4F91831C
:100FB0008083DE01AF5FBE4FFE01EF5FFE4F808199
:100FC0009181019711969C938E93FE01EF5FFE4FE6
:100FD000808191810097D1F627C08E010F5F1E4F4F
:100FE000FE01ED5FFE4F60817181828193810E94DD
:100FF0004900DC01CB01F80191838083DE01A3501D
:10100000BF4FFE01EF5FFE4F808191818D939C93D6
:10101000FE01E350FF4F808191810197F1F7FE01BE
:10102000E350FF4F918380830E94FE2DCE018250BA
:101030009E4FC85DDD4F99838883C852D24025E713
:1010400033E0C65DDD4F39832883CA52D24034E194
:10105000C45DDD4F3883CC52D240C65DDD4FE881A0
:10106000F981CA52D2400080C65DDD4F28813981A6
:10107000CA52D2402F5F3F4FC65DDD4F3983288370
:10108000CA52D240C85DDD4FE881F981C852D240D2
:101090000082C85DDD4F28813981C852D2402F5F60
:1010A0003F4FC85DDD4F39832883C852D240C45DAD
:1010B000DD4F3881CC52D2403150C45DDD4F388392
:1010C000CC52D240C45DDD4F8881CC52D2408823BF
:1010D00021F6CE018E5E9D4FC35DDD4F99838883DF
:1010E000CD52D240E1E6F3E0C15DDD4FF983E88304
:1010F000CF52D240F4E1CF5CDD4FF883C153D240F0
:10110000C15DDD4FE881F981CF52D2400080C15DE1
:10111000DD4F28813981CF52D2402F5F3F4FC15DD3
:10112000DD4F39832883CF52D240C35DDD4FE88144
:10113000F981CD52D2400082C35DDD4F28813981D3
:10114000CD52D2402F5F3F4FC35DDD4F398328839F
:10115000CD52D240CF5CDD4F3881C153D2403150A7
:10116000CF5CDD4F3883C153D240CF5CDD4F8881E7
:10117000C153D240882321F6FE01E55DFE4F8AE08F
:1011800090E09183808389E099E20E9488198FE73B
:1011900099E20E94151A0E94681D0E942729FE01EB
:1011A000E95DFE4F918380830E94FE2D80E060E028
:1011B0000E940E2D8CE091E00E946D2D80E06CE08D
:1011C0000E940E2DFE01E95DFE4F80819181CC01D0
:1011D000A0E0B0E0BC01CD010E94962D80E06EE061
:1011E0000E940E2D89E191E00E946D2DFE01E750D5
:1011F000FF4F80E090E0AAEFB4E480839183A28364
:10120000B3838E010B501F4FFE01E750FF4F6081EB
:1012100071818281938120E030E04AEF54E40E94A2
:101220001F02DC01CB01F80180839183A283B38389
:10123000FE01EB50FF4F608171818281938120E03C
:1012400030E040E85FE30E947903882344F4FE0124
:10125000ED50FF4F81E090E09183808364C0FE01F8
:10126000EB50FF4F608171818281938120E03FEFDD
:101270004FE757E40E94190318160CF043C0FE0113
:10128000E750FF4F608171818281938120E030E0DF
:1012900040E251E40E941F02DC01CB018E010D509F
:1012A0001F4FBC01CD010E944900DC01CB01F801B8
:1012B000918380831FC0FE01EF50FF4F88EC90E0C8
:1012C00091838083FE01EF50FF4F808191810197D0
:1012D000F1F7FE01EF50FF4F91838083DE01AD50A7
:1012E000BF4FFE01ED50FF4F808191810197119614
:1012F0009C938E93FE01ED50FF4F8081918100976A
:10130000D1F627C08E010D501F4FFE01EB50FF4F4D
:1013100060817181828193810E944900DC01CB014F
:10132000F80191838083DE01A151BF4FFE01ED5092
:10133000FF4F808191818D939C93FE01E151FF4F7E
:10134000808191810197F1F7FE01E151FF4F918377
:1013500080830E946E29FE01E35DFE4F91838083AE
:101360000E94FE2D80E060E00E940E2D8BE191E056
:101370000E946D2D80E065E00E940E2DFE01E35D70
:10138000FE4F80819181CC01A0E0B0E0BC01CD0195
:101390000E94962DFE01E551FF4F80E090E0AAEFFC
:1013A000B4E480839183A283B3838E0109511F4FDC
:1013B000FE01E551FF4F608171818281938120E0C0
:1013C00030E04AEF54E40E941F02DC01CB01F80137
:1013D00080839183A283B383FE01E951FF4F608133
:1013E00071818281938120E030E040E85FE30E94D8
:1013F0007903882344F4FE01EB51FF4F81E090E034
:101400009183808364C0FE01E951FF4F6081718147
:101410008281938120E03FEF4FE757E40E94190358
:1014200018160CF043C0FE01E551FF4F6081718139
:101430008281938120E030E040E251E40E941F026B
:10144000DC01CB018E010B511F4FBC01CD010E946D
:101450004900DC01CB01F801918380831FC0FE01AC
:10146000ED51FF4F88EC90E091838083FE01ED51B8
:10147000FF4F808191810197F1F7FE01ED51FF4F00
:1014800091838083DE01AB51BF4FFE01EB51FF4FD3
:1014900080819181019711969C938E93FE01EB516F
:1014A000FF4F808191810097D1F627C08E010B51AB
:1014B0001F4FFE01E951FF4F60817181828193814D
:1014C0000E944900DC01CB01F80191838083DE0199
:1014D000AF51BF4FFE01EB51FF4F808191818D9342
:1014E0009C93FE01EF51FF4F808191810197F1F7AD
:1014F000FE01EF51FF4F91838083FE01EB5CFE4FB5
:10150000DE01AD5CBE4F90818C91981710F10E9466
:1015100057280E946F280E94FE2D80E291E00E94D1
:101520006D2D81E060E00E940E2D89E291E00E9425
:101530006D2DFE01E05DFE4F808191810E94AE180D
:101540000E9463280E947B28FE01EB5CFE4F108204
:10155000D4CF0E94FE2D8BE391E00E946D2D81E09F
:1015600060E00E940E2D86E491E00E946D2DCE0178
:101570008A5C9E4F0E94C0170E94FE2D80E591E07C
:101580000E946D2D81E060E00E940E2DCE018A5CEC
:101590009E4F0E946D2DFE01E352FF4F80E090E0D0
:1015A000AAEFB4E480839183A283B3838E010752B0
:1015B0001F4FFE01E352FF4F608171818281938151
:1015C00020E030E04AEF54E40E941F02DC01CB012E
:1015D000F80180839183A283B383FE01E752FF4F1A
:1015E000608171818281938120E030E040E85FE397
:1015F0000E947903882344F4FE01E952FF4F81E001
:1016000090E09183808364C0FE01E752FF4F6081C8
:1016100071818281938120E03FEF4FE757E40E9480
:10162000190318160CF043C0FE01E352FF4F60810E
:1016300071818281938120E030E040E251E40E9498
:101640001F02DC01CB018E0109521F4FBC01CD01ED
:101650000E944900DC01CB01F801918380831FC007
:10166000FE01EB52FF4F88EC90E091838083FE01F6
:10167000EB52FF4F808191810197F1F7FE01EB5210
:10168000FF4F91838083DE01A952BF4FFE01E952D3
:10169000FF4F80819181019711969C938E93FE015B
:1016A000E952FF4F808191810097D1F627C08E01CA
:1016B00009521F4FFE01E752FF4F60817181828105
:1016C00093810E944900DC01CB01F8019183808362
:1016D000DE01AD52BF4FFE01E952FF4F8081918183
:1016E0008D939C93FE01ED52FF4F80819181019774
:1016F000F1F7FE01ED52FF4F91838083CE018A5CAA
:101700009E4FAE0142505E4FFE01E55DFE4F2081CF
:101710003181BA01A9010E946818FE01E75DFE4F00
:1017200091838083FE01E75DFE4F80819181FFEF11
:101730008F3F9F0711F40C948716FE01EB5CFE4F60
:101740001082FE01EC5CFE4FDE01AE5CBE4F90816C
:101750008C91981710F10E9457280E946F280E94C0
:10176000FE2D80E291E00E946D2D81E060E00E94FC
:101770000E2D8AE591E00E946D2DFE01E05DFE4F89
:10178000808191810E94AE180E9463280E947B286C
:10179000FE01EC5CFE4F1082B0CE0E94FE2D8CE666
:1017A00091E00E946D2DCE0186569E4F0E94C0177B
:1017B0000E94FE2D8DE791E00E946D2D81E060E09A
:1017C0000E940E2D83E891E00E946D2DFE01E153F1
:1017D000FF4F80E090E0AAEFB4E480839183A2837E
:1017E000B3838E0105531F4FFE01E153FF4F60810C
:1017F00071818281938120E030E04AEF54E40E94BD
:101800001F02DC01CB01F80180839183A283B383A3
:10181000FE01E553FF4F608171818281938120E059
:1018200030E040E85FE30E947903882344F4FE013E
:10183000E753FF4F81E090E09183808364C0FE0115
:10184000E553FF4F608171818281938120E03FEFFA
:101850004FE757E40E94190318160CF043C0FE012D
:10186000E153FF4F608171818281938120E030E0FC
:1018700040E251E40E941F02DC01CB018E010753BC
:101880001F4FBC01CD010E944900DC01CB01F801D2
:10189000918380831FC0FE01E953FF4F88EC90E0E5
:1018A00091838083FE01E953FF4F808191810197ED
:1018B000F1F7FE01E953FF4F91838083DE01A753C7
:1018C000BF4FFE01E753FF4F808191810197119631
:1018D0009C938E93FE01E753FF4F80819181009787
:1018E000D1F627C08E0107531F4FFE01E553FF4F6E
:1018F00060817181828193810E944900DC01CB016A
:10190000F80191838083DE01AB53BF4FFE01E753A3
:10191000FF4F808191818D939C93FE01EB53FF4F8C
:10192000808191810197F1F7FE01EB53FF4F918385
:101930008083FE01E75DFE4F808191819E012E5ED6
:101940003D4F880F991FF901E80FF91F2081318160
:10195000CE0186569E4FB9010E940318882311F4C8
:101960000C9403160E94FE2D88E891E00E946D2DD4
:10197000FE01EC5CFE4F1082FE01EF53FF4F80E052
:1019800090E0AAEFB4E480839183A283B3838E01B5
:1019900003541F4FFE01EF53FF4F6081718182811D
:1019A000938120E030E04AEF54E40E941F02DC0102
:1019B000CB01F80180839183A283B383FE01E354BA
:1019C000FF4F608171818281938120E030E040E8A7
:1019D0005FE30E947903882344F4FE01E554FF4F3E
:1019E00081E090E09183808364C0FE01E354FF4F67
:1019F000608171818281938120E03FEF4FE757E45E
:101A00000E94190318160CF043C0FE01EF53FF4F5C
:101A1000608171818281938120E030E040E251E475
:101A20000E941F02DC01CB018E0105541F4FBC0137
:101A3000CD010E944900DC01CB01F8019183808334
:101A40001FC0FE01E754FF4F88EC90E09183808334
:101A5000FE01E754FF4F808191810197F1F7FE016C
:101A6000E754FF4F91838083DE01A554BF4FFE01F1
:101A7000E554FF4F80819181019711969C938E933D
:101A8000FE01E554FF4F808191810097D1F627C078
:101A90008E0105541F4FFE01E354FF4F6081718199
:101AA000828193810E944900DC01CB01F80191837E
:101AB0008083DE01A954BF4FFE01E554FF4F8081B2
:101AC00091818D939C93FE01E954FF4F8081918118
:101AD0000197F1F7FE01E954FF4F9183808387E975
:101AE00091E00E94951787EA91E00E94951782EC99
:101AF00091E00E9495178EED91E00E94951789EF75
:101B000091E00E94951785E192E00E94951780E38D
:101B100092E00E9495178CE492E00E9495178FE561
:101B200092E00E94951783E792E00E94951785E85E
:101B300092E00E94951788E992E00E9495170E9412
:101B4000FE2D80E064E00E940E2D84EA92E00E9467
:101B50006D2D81E065E00E940E2D8FEA92E00E94DB
:101B60006D2D0E948617FE01E15DFE4F8083FE0110
:101B7000E15DFE4F8081282F30E0CA5DDD4F398363
:101B80002883C652D240CA5DDD4F88819981C652F2
:101B9000D2408534910509F49FC3CA5DDD4FE881C9
:101BA000F981C652D240E634F105ACF5CA5DDD4F8D
:101BB00028813981C652D2402234310509F431C11D
:101BC000CA5DDD4F88819981C652D2408334910528
:101BD00064F4CA5DDD4FE881F981C652D240E13438
:101BE000F10509F455C00C948115CA5DDD4F2881BB
:101BF0003981C652D2402334310509F4DBC1CA5DB4
:101C0000DD4F88819981C652D2408434910509F410
:101C10009AC20C948115CA5DDD4FE881F981C652E4
:101C2000D240E834F10509F4A6C5CA5DDD4F28812C
:101C30003981C652D24029343105ACF4CA5DDD4F3A
:101C400088819981C652D2408634910509F40DC429
:101C5000CA5DDD4FE881F981C652D240E734F10513
:101C600009F4CCC44EC7CA5DDD4F28813981C65204
:101C7000D2402934310509F43BC6CA5DDD4F888165
:101C80009981C652D2408335910509F4BFC639C740
:101C90000E94C1280E94FE2D80E065E00E940E2D6A
:101CA00087EB92E00E946D2D81E060E00E940E2D96
:101CB0008EEB92E00E946D2DFE01ED54FF4F80E00F
:101CC00090E0AAEFB4E480839183A283B3838E0172
:101CD00001551F4FFE01ED54FF4F608171818281DC
:101CE000938120E030E04AEF54E40E941F02DC01BF
:101CF000CB01F80180839183A283B383FE01E15578
:101D0000FF4F608171818281938120E030E040E863
:101D10005FE30E947903882344F4FE01E355FF4FFB
:101D200081E090E09183808364C0FE01E155FF4F24
:101D3000608171818281938120E03FEF4FE757E41A
:101D40000E94190318160CF043C0FE01ED54FF4F1A
:101D5000608171818281938120E030E040E251E432
:101D60000E941F02DC01CB018E0103551F4FBC01F5
:101D7000CD010E944900DC01CB01F80191838083F1
:101D80001FC0FE01E555FF4F88EC90E091838083F2
:101D9000FE01E555FF4F808191810197F1F7FE012A
:101DA000E555FF4F91838083DE01A355BF4FFE01B0
:101DB000E355FF4F80819181019711969C938E93FB
:101DC000FE01E355FF4F808191810097D1F611C745
:101DD0008E0103551F4FFE01E155FF4F6081718158
:101DE000828193810E944900DC01CB01F80191833B
:101DF0008083DE01A755BF4FFE01E355FF4F808171
:101E0000918111969C938E93FE01E755FF4F80813F
:101E100091810197F1F7FE01E755FF4F9183808390
:101E2000E8C60E94CD280E94FE2D80E065E00E9459
:101E30000E2D87EB92E00E946D2D81E060E00E9404
:101E40000E2D8AEC92E00E946D2DFE01EB55FF4FA6
:101E500080E090E0AAEFB4E480839183A283B3830F
:101E60008E010F551F4FFE01EB55FF4F60817181B1
:101E70008281938120E030E04AEF54E40E941F0207
:101E8000DC01CB01F80180839183A283B383FE013F
:101E9000EF55FF4F608171818281938120E030E0B6
:101EA00040E85FE30E947903882344F4FE01E15691
:101EB000FF4F81E090E09183808364C0FE01EF5585
:101EC000FF4F608171818281938120E03FEF4FE776
:101ED00057E40E94190318160CF043C0FE01EB559D
:101EE000FF4F608171818281938120E030E040E288
:101EF00051E40E941F02DC01CB018E0101561F4FED
:101F0000BC01CD010E944900DC01CB01F8019183A5
:101F100080831FC0FE01E356FF4F88EC90E0918361
:101F20008083FE01E356FF4F808191810197F1F795
:101F3000FE01E356FF4F91838083DE01A156BF4F20
:101F4000FE01E156FF4F80819181019711969C938C
:101F50008E93FE01E156FF4F808191810097D1F66B
:101F600048C68E0101561F4FFE01EF55FF4F60819D
:101F70007181828193810E944900DC01CB01F801CB
:101F800091838083DE01A556BF4FFE01E156FF4FCE
:101F90008081918111969C938E93FE01E556FF4FAF
:101FA000808191810197F1F7FE01E556FF4F918302
:101FB00080831FC60E94D9280E94FE2D80E065E024
:101FC0000E940E2D87ED92E00E946D2D81E060E071
:101FD0000E940E2D8EEB92E00E946D2DFE01E956BF
:101FE000FF4F80E090E0AAEFB4E480839183A28366
:101FF000B3838E010D561F4FFE01E956FF4F6081DE
:1020000071818281938120E030E04AEF54E40E94A4
:102010001F02DC01CB01F80180839183A283B3838B
:10202000FE01ED56FF4F608171818281938120E036
:1020300030E040E85FE30E947903882344F4FE0126
:10204000EF56FF4F81E090E09183808364C0FE01F2
:10205000ED56FF4F608171818281938120E03FEFD7
:102060004FE757E40E94190318160CF043C0FE0115
:10207000E956FF4F608171818281938120E030E0D9
:1020800040E251E40E941F02DC01CB018E010F5699
:102090001F4FBC01CD010E944900DC01CB01F801BA
:1020A000918380831FC0FE01E157FF4F88EC90E0D1
:1020B00091838083FE01E157FF4F808191810197D9
:1020C000F1F7FE01E157FF4F91838083DE01AF56A8
:1020D000BF4FFE01EF56FF4F80819181019711960E
:1020E0009C938E93FE01EF56FF4F80819181009764
:1020F000D1F67FC58E010F561F4FFE01ED56FF4FE3
:1021000060817181828193810E944900DC01CB0151
:10211000F80191838083DE01A357BF4FFE01EF5684
:10212000FF4F8081918111969C938E93FE01E3571E
:10213000FF4F808191810197F1F7FE01E357FF4F37
:102140009183808356C50E94E5280E94FE2D80E081
:1021500065E00E940E2D87ED92E00E946D2D81E0DA
:1021600060E00E940E2D8AEC92E00E946D2DFE012F
:10217000E757FF4F80E090E0AAEFB4E480839183BB
:10218000A283B3838E010B571F4FFE01E757FF4F0A
:10219000608171818281938120E030E04AEF54E4D4
:1021A0000E941F02DC01CB01F80180839183A2838E
:1021B000B383FE01EB57FF4F608171818281938170
:1021C00020E030E040E85FE30E947903882344F494
:1021D000FE01ED57FF4F81E090E09183808364C062
:1021E000FE01EB57FF4F608171818281938120E076
:1021F0003FEF4FE757E40E94190318160CF043C055
:10220000FE01E757FF4F608171818281938120E059
:1022100030E040E251E40E941F02DC01CB018E015C
:102220000D571F4FBC01CD010E944900DC01CB01BD
:10223000F801918380831FC0FE01EF57FF4F88ECA8
:1022400090E091838083FE01EF57FF4F8081918161
:102250000197F1F7FE01EF57FF4F91838083DE0175
:10226000AD57BF4FFE01ED57FF4F80819181019720
:1022700011969C938E93FE01ED57FF4F80819181C3
:102280000097D1F6B6C48E010D571F4FFE01EB57D4
:10229000FF4F60817181828193810E944900DC013E
:1022A000CB01F80191838083DE01A158BF4FFE016D
:1022B000ED57FF4F8081918111969C938E93FE0183
:1022C000E158FF4F808191810197F1F7FE01E158BC
:1022D000FF4F918380838DC40E94F1280E94FE2DC0
:1022E00080E065E00E940E2D8EED92E00E946D2D43
:1022F00081E060E00E940E2D8EEB92E00E946D2D39
:10230000FE01E558FF4F80E090E0AAEFB4E480833F
:102310009183A283B3838E0109581F4FFE01E558B4
:10232000FF4F608171818281938120E030E04AEF2C
:1023300054E40E941F02DC01CB01F80180839183E9
:10234000A283B383FE01E958FF4F608171818281CE
:10235000938120E030E040E85FE30E947903882326
:1023600044F4FE01EB58FF4F81E090E091838083BD
:1023700064C0FE01E958FF4F6081718182819381C1
:1023800020E03FEF4FE757E40E94190318160CF0C6
:1023900043C0FE01E558FF4F6081718182819381C6
:1023A00020E030E040E251E40E941F02DC01CB015A
:1023B0008E010B581F4FBC01CD010E944900DC016A
:1023C000CB01F801918380831FC0FE01ED58FF4FC0
:1023D00088EC90E091838083FE01ED58FF4F80816F
:1023E00091810197F1F7FE01ED58FF4F91838083B2
:1023F000DE01AB58BF4FFE01EB58FF4F808191814A
:10240000019711969C938E93FE01EB58FF4F8081AC
:1024100091810097D1F6EDC38E010B581F4FFE013D
:10242000E958FF4F60817181828193810E94490048
:10243000DC01CB01F80191838083DE01AF58BF4FEF
:10244000FE01EB58FF4F8081918111969C938E93F2
:10245000FE01EF58FF4F808191810197F1F7FE0156
:10246000EF58FF4F91838083C4C30E94FD280E94D0
:10247000FE2D80E065E00E940E2D8EED92E00E9420
:102480006D2D81E060E00E940E2D8AEC92E00E94AA
:102490006D2DFE01E359FF4F80E090E0AAEFB4E418
:1024A00080839183A283B3838E0107591F4FFE015E
:1024B000E359FF4F608171818281938120E030E098
:1024C0004AEF54E40E941F02DC01CB01F801808333
:1024D0009183A283B383FE01E759FF4F608171812D
:1024E0008281938120E030E040E85FE30E9479033D
:1024F000882344F4FE01E959FF4F81E090E0918385
:10250000808364C0FE01E759FF4F60817181828141
:10251000938120E03FEF4FE757E40E94190318161C
:102520000CF043C0FE01E359FF4F6081718182814D
:10253000938120E030E040E251E40E941F02DC0180
:10254000CB018E0109591F4FBC01CD010E944900EA
:10255000DC01CB01F801918380831FC0FE01EB59A0
:10256000FF4F88EC90E091838083FE01EB59FF4F91
:10257000808191810197F1F7FE01EB59FF4F918323
:102580008083DE01A959BF4FFE01E959FF4F8081C9
:102590009181019711969C938E93FE01E959FF4F0B
:1025A000808191810097D1F624C38E0109591F4F74
:1025B000FE01E759FF4F60817181828193810E9402
:1025C0004900DC01CB01F80191838083DE01AD5924
:1025D000BF4FFE01E959FF4F8081918111969C9375
:1025E0008E93FE01ED59FF4F808191810197F1F7A4
:1025F000FE01ED59FF4F91838083FBC20E94531B64
:102600000E94FE2D85EE92E00E946D2DFE01E15AA2
:10261000FF4F80E090E0AAEFB4E480839183A2832F
:10262000B3838E01055A1F4FFE01E15AFF4F6081AF
:1026300071818281938120E030E04AEF54E40E946E
:102640001F02DC01CB01F80180839183A283B38355
:10265000FE01E55AFF4F608171818281938120E004
:1026600030E040E85FE30E947903882344F4FE01F0
:10267000E75AFF4F81E090E09183808364C0FE01C0
:10268000E55AFF4F608171818281938120E03FEFA5
:102690004FE757E40E94190318160CF043C0FE01DF
:1026A000E15AFF4F608171818281938120E030E0A7
:1026B00040E251E40E941F02DC01CB018E01075A67
:1026C0001F4FBC01CD010E944900DC01CB01F80184
:1026D000918380831FC0FE01E95AFF4F88EC90E090
:1026E00091838083FE01E95AFF4F80819181019798
:1026F000F1F7FE01E95AFF4F91838083DE01A75A6B
:10270000BF4FFE01E75AFF4F8081918101971196DB
:102710009C938E93FE01E75AFF4F80819181009731
:10272000D1F667C28E01075A1F4FFE01E55AFF4FCF
:1027300060817181828193810E944900DC01CB011B
:10274000F80191838083DE01AB5ABF4FFE01E75A47
:10275000FF4F8081918111969C938E93FE01EB5ADD
:10276000FF4F808191810197F1F7FE01EB5AFF4FF6
:10277000918380833EC20E94011B0E94FE2D84EF44
:1027800092E00E946D2DFE01EF5AFF4F80E090E035
:10279000AAEFB4E480839183A283B3838E01035BA9
:1027A0001F4FFE01EF5AFF4F60817181828193813B
:1027B00020E030E04AEF54E40E941F02DC01CB012C
:1027C000F80180839183A283B383FE01E35BFF4F13
:1027D000608171818281938120E030E040E85FE395
:1027E0000E947903882344F4FE01E55BFF4F81E0FA
:1027F00090E09183808364C0FE01E35BFF4F6081C2
:1028000071818281938120E03FEF4FE757E40E947E
:10281000190318160CF043C0FE01EF5AFF4F6081F8
:1028200071818281938120E030E040E251E40E9496
:102830001F02DC01CB018E01055B1F4FBC01CD01E6
:102840000E944900DC01CB01F801918380831FC005
:10285000FE01E75BFF4F88EC90E091838083FE01EF
:10286000E75BFF4F808191810197F1F7FE01E75B04
:10287000FF4F91838083DE01A55BBF4FFE01E55BC7
:10288000FF4F80819181019711969C938E93FE0159
:10289000E55BFF4F808191810097D1F6AAC18E013F
:1028A000055B1F4FFE01E35BFF4F608171818281F9
:1028B00093810E944900DC01CB01F8019183808360
:1028C000DE01A95BBF4FFE01E55BFF4F8081918177
:1028D00011969C938E93FE01E95BFF4F808191815D
:1028E0000197F1F7FE01E95BFF4F9183808381C17E
:1028F0000E948E2A0E94FE2D83E093E00E946D2D9F
:10290000FE01ED5BFF4F80E090E0AAEFB4E480832E
:102910009183A283B3838E01015C1F4FFE01ED5BA7
:10292000FF4F608171818281938120E030E04AEF26
:1029300054E40E941F02DC01CB01F80180839183E3
:10294000A283B383FE01FF966081718182819381AE
:1029500020E030E040E85FE30E94790388232CF414
:1029600081E090E09EAF8DAF46C0FE01FF96608192
:1029700071818281938120E03FEF4FE757E40E940D
:102980001903181664F5FE01ED5BFF4F608171813C
:102990008281938120E030E040E251E40E941F02F6
:1029A000DC01CB01BC01CD010E944900DC01CB015F
:1029B0009EAF8DAF0FC088EC90E09CAF8BAF8BAD1E
:1029C0009CAD0197F1F79CAF8BAF8DAD9EAD01979C
:1029D0009EAF8DAF8DAD9EAD009769F70AC1FE0128
:1029E000FF9660817181828193810E944900DC01A0
:1029F000CB019EAF8DAF8DAD9EAD9AAF89AF89AD46
:102A00009AAD0197F1F79AAF89AFF3C00E949A2A65
:102A10000E94FE2D81E193E00E946D2D80E090E008
:102A2000AAEFB4E48DAB9EABAFABB8AF6DA97EA9F6
:102A30008FA998AD20E030E04AEF54E40E941F02D5
:102A4000DC01CB0189AB9AABABABBCAB69A97AA972
:102A50008BA99CA920E030E040E85FE30E94790365
:102A600088232CF481E090E098AB8FA73FC069A940
:102A70007AA98BA99CA920E03FEF4FE757E40E9479
:102A8000190318164CF56DA97EA98FA998AD20E001
:102A900030E040E251E40E941F02DC01CB01BC01A6
:102AA000CD010E944900DC01CB0198AB8FA70FC07C
:102AB00088EC90E09EA78DA78DA59EA50197F1F7C4
:102AC0009EA78DA78FA598A9019798AB8FA78FA5D3
:102AD00098A9009769F78DC069A97AA98BA99CA9C3
:102AE0000E944900DC01CB0198AB8FA78FA598A964
:102AF0009CA78BA78BA59CA50197F1F79CA78BA7FB
:102B000078C00E94FE2D8FE193E00E946D2D80E041
:102B100090E0AAEFB4E48FA398A7A9A7BAA76FA1E2
:102B200078A589A59AA520E030E04AEF54E40E94F8
:102B30001F02DC01CB018BA39CA3ADA3BEA36BA1A1
:102B40007CA18DA19EA120E030E040E85FE30E94DF
:102B5000790388232CF481E090E09AA389A33FC0F5
:102B60006BA17CA18DA19EA120E03FEF4FE757E430
:102B70000E94190318164CF56FA178A589A59AA58E
:102B800020E030E040E251E40E941F02DC01CB0172
:102B9000BC01CD010E944900DC01CB019AA389A3AD
:102BA0000FC088EC90E098A38F8F8F8D98A101972C
:102BB000F1F798A38F8F89A19AA101979AA389A36E
:102BC00089A19AA1009769F714C06BA17CA18DA17E
:102BD0009EA10E944900DC01CB019AA389A389A18F
:102BE0009AA19E8F8D8F8D8D9E8D0197F1F79E8F6F
:102BF0008D8FFE01E15DFE4F80818A3411F40C94CB
:102C00007D0A0C946F0D0E94FE2D8EE293E00E94CF
:102C10006D2DDE01AC5CBE4FFE01EC5CFE4F808191
:102C20008F5F8C9380E090E0AAEFB4E4898F9A8F55
:102C3000AB8FBC8F698D7A8D8B8D9C8D20E030E0C1
:102C40004AEF54E40E941F02DC01CB018D8B9E8B66
:102C5000AF8BB88F6D897E898F89988D20E030E0A9
:102C600040E85FE30E94790388232CF481E090E040
:102C70009C8B8B8B40C06D897E898F89988D20E0DD
:102C80003FEF4FE757E40E941903181654F5698D7A
:102C90007A8D8B8D9C8D20E030E040E251E40E94E3
:102CA0001F02DC01CB01BC01CD010E944900DC0107
:102CB000CB019C8B8B8B0FC088EC90E09A8B898B1F
:102CC00089899A890197F1F79A8B898B8B899C89DD
:102CD00001979C8B8B8B8B899C89009769F70C944F
:102CE000A10B6D897E898F89988D0E944900DC0136
:102CF000CB019C8B8B8B8B899C89988B8F878F8545
:102D000098890197F1F7988B8F870C94A10B0E94FB
:102D1000FE2D8BE393E00E946D2DDE01AB5CBE4F78
:102D2000FE01EB5CFE4F80818F5F8C9380E090E032
:102D3000AAEFB4E48B879C87AD87BE876B857C85C3
:102D40008D859E8520E030E04AEF54E40E941F020A
:102D5000DC01CB018F839887A987BA876F8178853B
:102D600089859A8520E030E040E85FE30E9479039E
:102D700088232CF481E090E09E838D8340C06F8196
:102D8000788589859A8520E03FEF4FE757E40E94D8
:102D90001903181654F56B857C858D859E8520E07A
:102DA00030E040E251E40E941F02DC01CB01BC0193
:102DB000CD010E944900DC01CB019E838D830FC0B1
:102DC00088EC90E09C838B838B819C810197F1F749
:102DD0009C838B838D819E8101979E838D838D81C2
:102DE0009E81009769F70C947D0A6F8178858985AB
:102DF0009A850E944900DC01CB019E838D838D81E1
:102E00009E819A83898389819A810197F1F79A83B8
:102E100089830C947D0ADF93CF9300D00F92CDB7B6
:102E2000DEB784E390E09B838A8380E88983E9E2CC
:102E3000F0E08A818083E0E4F0E08A81882F90E0EE
:102E4000892F990F990B8083ABE2B0E0EBE2F0E0C1
:102E500080818E7F8C93AAE2B0E0EAE2F0E080818C
:102E600088608C93AAE2B0E0EAE2F0E080818061C1
:102E70008C93AAE2B0E0EAE2F0E080818B7F8C9351
:102E8000898184608983898182608983A0E4B0E03C
:102E9000E0E4F0E080818F7B8C93A0E4B0E0E0E49C
:102EA000F0E080818F7E8C93A0E4B0E0E0E4F0E07D
:102EB00080818F7D8C93A0E4B0E0E0E4F0E080813D
:102EC000877F8C93E0E4F0E0898180830F900F90FE
:102ED0000F90CF91DF910895DF93CF930F92CDB7ED
:102EE000DEB78983EBE2F0E080818295869587707A
:102EF000882F90E0817090700097A1F3ECE2F0E0F1
:102F0000898180830F90CF91DF910895DF93CF93D4
:102F1000CDB7DEB7EBE2F0E080818823DCF7ECE2AE
:102F2000F0E08081CF91DF910895DF93CF9300D0BF
:102F300000D0CDB7DEB79C838B831A8219820FC075
:102F40002B813C8189819A81F901E80FF91F8081E9
:102F50000E946C1789819A8101969A8389832B81BB
:102F60003C8189819A81F901E80FF91F80818823CA
:102F700039F70F900F900F900F90CF91DF91089538
:102F80000F931F93DF93CF9300D000D0CDB7DEB760
:102F90009C838B831A8219822B813C8189819A813F
:102FA0008901080F191F0E948617F801808310C03D
:102FB00089819A8101969A8389832B813C818981B9
:102FC0009A818901080F191F0E948617F8018083D2
:102FD0002B813C8189819A81F901E80FF91F808159
:102FE000833231F78B819C8129813A81FC01E20F88
:102FF000F31F10820F900F900F900F90CF91DF91E1
:103000001F910F910895DF93CF93CDB7DEB7299726
:103010000FB6F894DEBF0FBECDBF9C838B837E833B
:103020006D831A82198219C02B813C8189819A8112
:10303000F901E80FF91F40812D813E8189819A8134
:10304000F901E80FF91F8081481711F0198636C081
:1030500089819A8101969A8389832B813C81898118
:103060009A81F901E80FF91F8081882351F02D81A1
:103070003E8189819A81F901E80FF91F80818823B7
:1030800099F62B813C8189819A81F901E80FF91F1A
:103090008081882379F42D813E8189819A81F9018B
:1030A000E80FF91F8081882329F481E090E0988758
:1030B0008F8302C018861F829F81998789852996F0
:1030C0000FB6F894DEBF0FBECDBFCF91DF9108954C
:1030D000DF93CF93CDB7DEB72A970FB6F894DEBF54
:1030E0000FBECDBF9C838B837E836D8358874F83B8
:1030F0001A8219821DC089819A819C01220F331F77
:103100008D819E81FC01E20FF31F208131818B8133
:103110009C81B9010E940318882329F089819A8132
:103120009A87898710C089819A8101969A838983B9
:1031300029813A818F81988528173907E0F28FEF2E
:103140009FEF9A87898789859A852A960FB6F89482
:10315000DEBF0FBECDBFCF91DF910895DF93CF9338
:10316000CDB7DEB760970FB6F894DEBF0FBECDBF08
:10317000988B8F878AC00E94FE2D88E493E00E947E
:103180006D2D81E060E00E940E2D8F859889CC0125
:10319000A0E0B0E0BC01CD010E94962D80E090E05F
:1031A000AAE7B4E48B879C87AD87BE876B857C8557
:1031B0008D859E8520E030E04AEF54E40E941F0296
:1031C000DC01CB018F839887A987BA876F817885C7
:1031D00089859A8520E030E040E85FE30E9479032A
:1031E00088232CF481E090E09E838D833FC06F8123
:1031F000788589859A8520E03FEF4FE757E40E9464
:10320000190318164CF56B857C858D859E8520E00D
:1032100030E040E251E40E941F02DC01CB01BC011E
:10322000CD010E944900DC01CB019E838D830FC03C
:1032300088EC90E09C838B838B819C810197F1F7D4
:103240009C838B838D819E8101979E838D838D814D
:103250009E81009769F714C06F81788589859A856A
:103260000E944900DC01CB019E838D838D819E816C
:103270009A83898389819A810197F1F79A83898357
:103280008F8598890197988B8F878F85988900976C
:1032900009F071CF60960FB6F894DEBF0FBECDBFB8
:1032A000CF91DF910895DF93CF93CDB7DEB7A3E53C
:1032B000B0E0E3E5F0E080818F7B8C93A3E5B0E0A4
:1032C000E3E5F0E08081877F8C93A3E5B0E0E3E560
:1032D000F0E080818E7F8C93A3E5B0E0E3E5F0E041
:1032E00080818B7F8C93A3E5B0E0E3E5F0E0808103
:1032F00082608C93A9E5B0E0E9E5F0E0808181602F
:103300008C93E2E5F0E080EC8083CF91DF9108952B
:10331000DF93CF9300D0CDB7DEB79A8389838981BD
:103320009A8190938F0380938E030F900F90CF918B
:10333000DF9108951F920F920FB60F9211242F93D1
:103340003F934F935F936F937F938F939F93AF932D
:10335000BF93EF93FF93DF93CF93CDB7DEB7809109
:103360008A0390918B03019690938B0380938A0339
:1033700080918A0390918B032FE08334920769F444
:10338000E0918E03F0918F03099510928B031092B8
:103390008A03E2E5F0E080EC8083CF91DF91FF913A
:1033A000EF91BF91AF919F918F917F916F915F91BD
:1033B0004F913F912F910F900FBE0F901F90189536
:1033C000DF93CF93CDB7DEB7A3E5B0E0E3E5F0E060
:1033D00080818F7B8C93A3E5B0E0E3E5F0E0808112
:1033E00088608C93A3E5B0E0E3E5F0E080818E7F18
:1033F0008C93A3E5B0E0E3E5F0E080818B7F8C93D4
:10340000A3E5B0E0E3E5F0E0808182608C93A9E57C
:10341000B0E0E9E5F0E0808182608C93ECE5F0E0DB
:1034200083E68083CF91DF910895DF93CF9300D01F
:10343000CDB7DEB79A83898389819A81909391036E
:10344000809390030F900F90CF91DF9108951F927A
:103450000F920FB60F9211242F933F934F935F93C8
:103460006F937F938F939F93AF93BF93EF93FF934C
:10347000DF93CF93CDB7DEB780918C0390918D030E
:10348000019690938D0380938C0380918C0390918F
:103490008D0327E28031920749F4E0919003F09187
:1034A0009103099510928D0310928C03CF91DF91B7
:1034B000FF91EF91BF91AF919F918F917F916F910C
:1034C0005F914F913F912F910F900FBE0F901F90E2
:1034D0001895DF93CF93CDB7DEB7A3E5B0E0E3E572
:1034E000F0E080818E7F8C93A3E5B0E0E3E5F0E02F
:1034F00080818B7F8C93A3E5B0E0E3E5F0E08081F1
:1035000082608C93A3E5B0E0E3E5F0E08081806425
:103510008C93A3E5B0E0E3E5F0E0808188608C93D4
:10352000A3E5B0E0E3E5F0E080818F7E8C93A3E536
:10353000B0E0E3E5F0E0808180628C93CF91DF9191
:103540000895DF93CF930F92CDB7DEB78983ECE573
:10355000F0E0898180830F90CF91DF910895DF9310
:10356000CF93CDB7DEB7AEE4B0E0EEE4F0E080811B
:1035700088608C93AEE4B0E0EEE4F0E0808180619E
:103580008C93AFE4B0E0EFE4F0E080818E7F8C9329
:10359000AFE4B0E0EFE4F0E0808182608C93AFE4D0
:1035A000B0E0EFE4F0E080818F7B8C93AFE4B0E09B
:1035B000EFE4F0E0808180688C93AEE4B0E0EEE46C
:1035C000F0E080818E7F8C93AEE4B0E0EEE4F0E03A
:1035D00080818B7F8C93AEE4B0E0EEE4F0E08081FC
:1035E00082608C93E6E4F0E08FE19EE49183808337
:1035F000EAE4F0E087EE93E091838083CF91DF915E
:103600000895DF93CF93CDB7DEB7AEE4B0E0EEE43C
:10361000F0E0808188608C93AEE4B0E0EEE4F0E00E
:10362000808180618C93AFE4B0E0EFE4F0E08081D2
:103630008E7F8C93AFE4B0E0EFE4F0E080818260B5
:103640008C93AFE4B0E0EFE4F0E080818F7B8C936B
:10365000AFE4B0E0EFE4F0E0808180688C93AEE40A
:10366000B0E0EEE4F0E080818E7F8C93AEE4B0E0D9
:10367000EEE4F0E080818B7F8C93AEE4B0E0EEE48A
:10368000F0E0808182608C93E6E4F0E08FE19EE4DC
:1036900091838083EAE4F0E087EE93E09183808376
:1036A000CF91DF910895DF93CF93CDB7DEB7AEE42E
:1036B000B0E0EEE4F0E0808188608C93AEE4B0E0AE
:1036C000EEE4F0E0808180618C93AFE4B0E0EFE461
:1036D000F0E080818E7F8C93AFE4B0E0EFE4F0E027
:1036E000808182608C93AFE4B0E0EFE4F0E0808111
:1036F0008F7B8C93AFE4B0E0EFE4F0E080818068F2
:103700008C93AEE4B0E0EEE4F0E080818E7F8C93A9
:10371000AEE4B0E0EEE4F0E080818B7F8C93AEE429
:10372000B0E0EEE4F0E0808182608C93E6E4F0E0CB
:103730008FE19EE491838083EAE4F0E080ED97E0FE
:1037400091838083CF91DF910895DF93CF93CDB79D
:10375000DEB7A1E2B0E0E1E2F0E080818E7F8C9301
:10376000A1E2B0E0E1E2F0E080818D7F8C93E0E2C5
:10377000F0E082E08083A6E5B0E0E6E5F0E080815D
:1037800080648C93A6E5B0E0E6E5F0E0808184609B
:103790008C93CF91DF910895DF93CF930F92CDB7A4
:1037A000DEB78983E2E2F0E08981880F8083A6E5B5
:1037B000B0E0E6E5F0E0808184608C930F90CF91DB
:1037C000DF910895DF93CF930F92CDB7DEB71982C3
:1037D000A6E5B0E0E6E5F0E0808180628C93A6E5A6
:1037E000B0E0E6E5F0E0808180688C93E6E5F0E00B
:1037F00080818823DCF7E1E2F0E08081882F90E08F
:10380000887F90708830910511F081E089838981EB
:103810000F90CF91DF910895DF93CF930F92CDB7A3
:10382000DEB71982A6E5B0E0E6E5F0E080818062CF
:103830008C93A6E5B0E0E6E5F0E0808180688C93AB
:10384000E6E5F0E080818823DCF7E1E2F0E08081CA
:10385000882F90E0887F90708031910511F082E090
:10386000898389810F90CF91DF910895DF93CF9362
:1038700000D0CDB7DEB78A831982E3E2F0E08A8117
:10388000880F8083A3E2B0E0E3E2F0E08081816012
:103890008C93A6E5B0E0E6E5F0E080818F7D8C9327
:1038A000A6E5B0E0E6E5F0E0808180688C93E6E58F
:1038B000F0E080818823DCF7E1E2F0E08081882F6E
:1038C00090E0887F90708034910511F083E08983C7
:1038D00089810F900F90CF91DF910895DF93CF935F
:1038E00000D0CDB7DEB78A831982E3E2F0E08A81A7
:1038F000880F8083A3E2B0E0E3E2F0E080818E7F76
:103900008C93A6E5B0E0E6E5F0E080818F7D8C93B6
:10391000A6E5B0E0E6E5F0E0808180688C93E6E51E
:10392000F0E080818823DCF7E1E2F0E08081882FFD
:1039300090E0887F90708831910511F084E0898350
:1039400089810F900F90CF91DF910895DF93CF93EE
:1039500000D0CDB7DEB78A831982E3E2F0E08A8136
:103960008083A6E5B0E0E6E5F0E0808180688C9396
:10397000E6E5F0E080818823DCF7E1E2F0E0808199
:10398000882F90E0887F90708832910511F085E053
:10399000898389810F900F90CF91DF910895DF93F4
:1039A000CF9300D00F92CDB7DEB79B838A83198265
:1039B000A6E5B0E0E6E5F0E0808180648C93A6E5C2
:1039C000B0E0E6E5F0E0808180688C93E6E5F0E029
:1039D00080818823DCF7E1E2F0E08081882F90E0AD
:1039E000887F90708035910539F4E3E2F0E08081C2
:1039F000EA81FB81808302C085E0898389810F9001
:103A00000F900F90CF91DF910895DF93CF93CDB7B3
:103A1000DEB7A6E5B0E0E6E5F0E0808180618C935A
:103A2000A6E5B0E0E6E5F0E0808180688C93CF9178
:103A3000DF910895DF93CF93CDB7DEB7ADE2B0E06D
:103A4000EDE2F0E080818F7E8C93ADE2B0E0EDE2BC
:103A5000F0E0808180648C93CF91DF910895DF93B3
:103A6000CF93CDB7DEB7ADE2B0E0EDE2F0E080811C
:103A700082608C93ADE2B0E0EDE2F0E080818160A5
:103A80008C93ADE2B0E0EDE2F0E0808180618C9358
:103A9000ADE2B0E0EDE2F0E0808180648C93CF9104
:103AA000DF910895DF93CF930F92CDB7DEB789836F
:103AB000EFE2F0E089818083EEE2F0E0808188230C
:103AC000DCF7EFE2F0E080810F90CF91DF91089575
:103AD000DF93CF93CDB7DEB7AFE5B0E0EFE5F0E031
:103AE000808180688C93CF91DF910895DF93CF938D
:103AF000CDB7DEB7AFE5B0E0EFE5F0E080818F77DE
:103B00008C93CF91DF910895DF93CF9300D00F92E4
:103B1000CDB7DEB789838981282F30E03B832A83A4
:103B20008A819B818130910521F12A813B8122305C
:103B300031052CF48A819B81009761F046C02A816F
:103B40003B812230310521F18A819B8183309105AF
:103B500071F13BC0A5E5B0E0E5E5F0E080818E7F46
:103B60008C93A5E5B0E0E5E5F0E080818D7F8C9356
:103B70002CC0A5E5B0E0E5E5F0E0808181608C93A4
:103B8000A5E5B0E0E5E5F0E0808182608C931DC0A2
:103B9000A5E5B0E0E5E5F0E0808182608C93A5E5E5
:103BA000B0E0E5E5F0E080818E7F8C930EC0A5E566
:103BB000B0E0E5E5F0E080818D7F8C93A5E5B0E095
:103BC000E5E5F0E0808181608C930F900F900F907D
:103BD000CF91DF910895DF93CF9300D00F92CDB7AF
:103BE000DEB789838981282F30E03B832A838A814D
:103BF0009B818130910599F12A813B8122303105E9
:103C00002CF48A819B81009761F046C02A813B8118
:103C10002230310599F18A819B818330910581F0B1
:103C20003BC0A5E5B0E0E5E5F0E080818B7F8C93BB
:103C3000A5E5B0E0E5E5F0E08081877F8C932CC0BE
:103C4000A5E5B0E0E5E5F0E0808184608C93A5E532
:103C5000B0E0E5E5F0E08081877F8C931DC0A5E5AD
:103C6000B0E0E5E5F0E0808184608C93A5E5B0E00C
:103C7000E5E5F0E0808188608C930EC0A5E5B0E0BA
:103C8000E5E5F0E080818B7F8C93A5E5B0E0E5E58C
:103C9000F0E0808188608C930F900F900F90CF910F
:103CA000DF910895DF93CF9300D00F92CDB7DEB7A9
:103CB00089838981282F30E03B832A838A819B81F5
:103CC0008130910531F02A813B812230310549F064
:103CD0000FC0A4E5B0E0E4E5F0E0808180648C935F
:103CE00007C0A4E5B0E0E4E5F0E080818F7B8C9331
:103CF0000F900F900F90CF91DF910895DF93CF93A6
:103D0000CDB7DEB7ABE5B0E0EBE5F0E080818064F5
:103D10008C93CF91DF910895DF93CF93CDB7DEB72A
:103D2000ABE5B0E0EBE5F0E0808180688C93CF916B
:103D3000DF910895DF93CF93CDB7DEB7ABE5B0E069
:103D4000EBE5F0E0808180628C93CF91DF91089564
:103D5000DF93CF9300D0CDB7DEB79A838983898173
:103D60009A8190939303809392030F900F90CF9139
:103D7000DF9108951F920F920FB60F9211242F9387
:103D80003F934F935F936F937F938F939F93AF93E3
:103D9000BF93EF93FF93DF93CF93CDB7DEB7E0915F
:103DA0009203F09193030995CF91DF91FF91EF91E9
:103DB000BF91AF919F918F917F916F915F914F9143
:103DC0003F912F910F900FBE0F901F901895DF938A
:103DD000CF93CDB7DEB72D970FB6F894DEBF0FBEE9
:103DE000CDBF89836A834B838981843008F0FDC00D
:103DF0008A81883008F0F9C08981282F30E03D871A
:103E00002C878C859D858130910509F44DC02C85CA
:103E10003D85223031052CF48C859D85009771F00D
:103E2000E4C02C853D852230310509F473C08C85B2
:103E30009D858330910509F4A3C0D7C08B81282FBD
:103E400030E03B872A878A859B85009731F02A8559
:103E50003B8521303105A9F0C8C0ABE3B0E0EBE30E
:103E6000F0E040818A81282F30E081E090E0022E4E
:103E700002C0880F991F0A94E2F7809584238C93DF
:103E8000B4C0ABE3B0E0EBE3F0E040818A81282FDF
:103E900030E081E090E0022E02C0880F991F0A9462
:103EA000E2F7842B8C93A1C08B81282F30E03987D7
:103EB000288788859985009731F0288539852130B4
:103EC0003105A9F092C0A8E3B0E0E8E3F0E040815A
:103ED0008A81282F30E081E090E0022E02C0880F16
:103EE000991F0A94E2F7809584238C937EC0A8E3FF
:103EF000B0E0E8E3F0E040818A81282F30E081E003
:103F000090E0022E02C0880F991F0A94E2F7842BDA
:103F10008C936BC08B81282F30E03F832E838E8162
:103F20009F81009731F02E813F8121303105A9F02A
:103F30005CC0A5E3B0E0E5E3F0E040818A81282F92
:103F400030E081E090E0022E02C0880F991F0A94B1
:103F5000E2F7809584238C9348C0A5E3B0E0E5E3C5
:103F6000F0E040818A81282F30E081E090E0022E4D
:103F700002C0880F991F0A94E2F7842B8C9335C0F6
:103F80008B81282F30E03D832C838C819D8100978D
:103F900031F02C813D8121303105A9F026C0A2E30A
:103FA000B0E0E2E3F0E040818A81282F30E081E058
:103FB00090E0022E02C0880F991F0A94E2F78095C4
:103FC00084238C9312C0A2E3B0E0E2E3F0E04081EE
:103FD0008A81282F30E081E090E0022E02C0880F15
:103FE000991F0A94E2F7842B8C932D960FB6F894C0
:103FF000DEBF0FBECDBFCF91DF910895DF93CF938A
:10400000CDB7DEB72D970FB6F894DEBF0FBECDBF8C
:1040100089836A834B838981843008F0FDC08A815B
:10402000883008F0F9C08981282F30E03D872C873F
:104030008C859D858130910509F44DC02C853D8589
:10404000223031052CF48C859D85009771F0E4C0F9
:104050002C853D852230310509F473C08C859D8502
:104060008330910509F4A3C0D7C08B81282F30E09D
:104070003B872A878A859B85009731F02A853B8577
:1040800021303105A9F0C8C0AAE3B0E0EAE3F0E0CE
:1040900040818A81282F30E081E090E0022E02C02A
:1040A000880F991F0A94E2F7809584238C93B4C0FB
:1040B000AAE3B0E0EAE3F0E040818A81282F30E013
:1040C00081E090E0022E02C0880F991F0A94E2F767
:1040D000842B8C93A1C08B81282F30E039872887CF
:1040E00088859985009731F02885398521303105FB
:1040F000A9F092C0A7E3B0E0E7E3F0E040818A8155
:10410000282F30E081E090E0022E02C0880F991F36
:104110000A94E2F7809584238C937EC0A7E3B0E0F5
:10412000E7E3F0E040818A81282F30E081E090E0F1
:10413000022E02C0880F991F0A94E2F7842B8C93F9
:104140006BC08B81282F30E03F832E838E819F812F
:10415000009731F02E813F8121303105A9F05CC0FC
:10416000A4E3B0E0E4E3F0E040818A81282F30E06E
:1041700081E090E0022E02C0880F991F0A94E2F7B6
:10418000809584238C9348C0A4E3B0E0E4E3F0E09E
:1041900040818A81282F30E081E090E0022E02C029
:1041A000880F991F0A94E2F7842B8C9335C08B817A
:1041B000282F30E03D832C838C819D81009731F046
:1041C0002C813D8121303105A9F026C0A1E3B0E06A
:1041D000E1E3F0E040818A81282F30E081E090E047
:1041E000022E02C0880F991F0A94E2F7809584235B
:1041F0008C9312C0A1E3B0E0E1E3F0E040818A815A
:10420000282F30E081E090E0022E02C0880F991F35
:104210000A94E2F7842B8C932D960FB6F894DEBFA8
:104220000FBECDBFCF91DF910895DF93CF9300D024
:1042300000D00F92CDB7DEB78A836B8385E0898388
:104240008A81843008F06BC08B81883008F067C0A9
:104250008A81282F30E03D832C834C815D81413061
:10426000510541F18C819D818230910534F42C817E
:104270003D812115310561F052C04C815D81423094
:10428000510551F18C819D8183309105B9F147C071
:10429000E9E3F0E08081282F30E08B81882F90E0E7
:1042A000A90102C0559547958A95E2F7CA01817028
:1042B000898335C0E6E3F0E08081282F30E08B81F0
:1042C000882F90E0A90102C0559547958A95E2F79D
:1042D000CA018170898323C0E3E3F0E08081282F45
:1042E00030E08B81882F90E0A90102C05595479559
:1042F0008A95E2F7CA018170898311C0E0E3F0E09A
:104300008081282F30E08B81882F90E0A90102C0A6
:10431000559547958A95E2F7CA018170898389810D
:104320000F900F900F900F900F90CF91DF91089505
:10433000DF93CF9300D000D0CDB7DEB789836A83F7
:104340008981843090F58981282F30E03C832B834C
:104350008B819C8181309105D1F02B813C81223071
:1043600031052CF48B819C81009761F01EC02B815C
:104370003C812230310581F08B819C818330910515
:1043800081F013C0EBE3F0E08A8180830EC0E8E3A4
:10439000F0E08A81808309C0E5E3F0E08A818083D0
:1043A00004C0E2E3F0E08A8180830F900F900F90C9
:1043B0000F90CF91DF910895DF93CF9300D000D07D
:1043C000CDB7DEB789836A838981843090F589818E
:1043D000282F30E03C832B838B819C818130910599
:1043E000D1F02B813C81223031052CF48B819C81D2
:1043F000009761F01EC02B813C812230310581F095
:104400008B819C818330910581F013C0EAE3F0E059
:104410008A8180830EC0E7E3F0E08A81808309C04F
:10442000E4E3F0E08A81808304C0E1E3F0E08A8184
:1044300080830F900F900F900F90CF91DF91089590
:10444000DF93CF9300D000D0CDB7DEB78A838A81C7
:10445000843090F58A81282F30E03C832B838B8138
:104460009C8181309105D1F02B813C812230310536
:104470002CF48B819C81009761F01EC02B813C81C4
:104480002230310581F08B819C818330910581F050
:1044900013C0E9E3F0E0808189830EC0E6E3F0E039
:1044A0008081898309C0E3E3F0E08081898304C0CF
:1044B000E0E3F0E08081898389810F900F900F9075
:1044C0000F90CF91DF910895DF93CF93CDB7DEB7F3
:1044D000A7E2B0E0E7E2F0E0808180648C93A7E29D
:1044E000B0E0E7E2F0E0808180688C93A7E2B0E082
:1044F000E7E2F0E080818F7D8C93A6E2B0E0E6E217
:10450000F0E080818F7D8C93A6E2B0E0E6E2F0E0FF
:1045100080818E7F8C93A6E2B0E0E6E2F0E08081BD
:1045200082608C93A6E2B0E0E6E2F0E080818460F5
:104530008C93A6E2B0E0E6E2F0E0808180688C93A4
:10454000CF91DF910895DF93CF930F92CDB7DEB770
:104550008983A7E2B0E0E7E2F0E08081807E8C937F
:10456000A7E2B0E0E7E2F0E090818981892B8C93AB
:10457000A6E2B0E0E6E2F0E0808180648C93E6E2BF
:10458000F0E0808182958F70882F90E0817090702C
:104590000097A9F3A6E2B0E0E6E2F0E08081806156
:1045A0008C93E4E2F0E0808191810F90CF91DF91D4
:1045B00008950F931F93DF93CF93CDB7DEB7CA57FC
:1045C000D0400FB6F894DEBF0FBECDBFFE01EA5853
:1045D000FF4F8083FE01E958FF4F40835183628380
:1045E0007383FE01E958FF4F80819181A281B381DD
:1045F000072E79E0880F991FAA1FBB1F7A95D1F764
:10460000702D8E010E581F4F28E631E040E050E03B
:10461000BC01CD010E94C42EDA01C901F8018083DA
:104620009183A283B383FE01EF58FF4F10821EC512
:10463000FE01EA58FF4F8081813009F0EFC280E02F
:1046400060E040E00E94E71E80E061E041E00E94FF
:10465000E71E80E062E041E00E94E71E80E063E048
:1046600041E00E94E71EFE01E359FF4F80E090E029
:10467000A0E2B1E480839183A283B3838E010759C2
:104680001F4FFE01E359FF4F608171818281938149
:1046900020E030E04AEF54E40E941F02DC01CB012D
:1046A000F80180839183A283B383FE01E759FF4F12
:1046B000608171818281938120E030E040E85FE396
:1046C0000E947903882344F4FE01E959FF4F81E0F9
:1046D00090E09183808364C0FE01E759FF4F6081C1
:1046E00071818281938120E03FEF4FE757E40E9480
:1046F000190318160CF043C0FE01E359FF4F608107
:1047000071818281938120E030E040E251E40E9497
:104710001F02DC01CB018E0109591F4FBC01CD01E5
:104720000E944900DC01CB01F801918380831FC006
:10473000FE01EB59FF4F88EC90E091838083FE01EE
:10474000EB59FF4F808191810197F1F7FE01EB5901
:10475000FF4F91838083DE01A959BF4FFE01E959C4
:10476000FF4F80819181019711969C938E93FE015A
:10477000E959FF4F808191810097D1F627C08E01C2
:1047800009591F4FFE01E759FF4F608171818281F6
:1047900093810E944900DC01CB01F8019183808361
:1047A000DE01AD59BF4FFE01E959FF4F8081918174
:1047B0008D939C93FE01ED59FF4F8081918101976C
:1047C000F1F7FE01ED59FF4F9183808380E060E0B7
:1047D00041E00E94E71E80E061E040E00E94E71EA9
:1047E00080E062E041E00E94E71E80E063E041E09B
:1047F0000E94E71EFE01E15AFF4F80E090E0A0E238
:10480000B1E480839183A283B3838E01055A1F4F45
:10481000FE01E15AFF4F608171818281938120E026
:1048200030E04AEF54E40E941F02DC01CB01F801A2
:1048300080839183A283B383FE01E55AFF4F608199
:1048400071818281938120E030E040E85FE30E9443
:104850007903882344F4FE01E75AFF4F81E090E09A
:104860009183808364C0FE01E55AFF4F60817181AE
:104870008281938120E03FEF4FE757E40E941903C4
:1048800018160CF043C0FE01E15AFF4F60817181A0
:104890008281938120E030E040E251E40E941F02D7
:1048A000DC01CB018E01075A1F4FBC01CD010E94D4
:1048B0004900DC01CB01F801918380831FC0FE0118
:1048C000E95AFF4F88EC90E091838083FE01E95A1A
:1048D000FF4F808191810197F1F7FE01E95AFF4F67
:1048E00091838083DE01A75ABF4FFE01E75AFF4F35
:1048F00080819181019711969C938E93FE01E75AD6
:10490000FF4F808191810097D1F627C08E01075A11
:104910001F4FFE01E55AFF4F6081718182819381B3
:104920000E944900DC01CB01F80191838083DE0104
:10493000AB5ABF4FFE01E75AFF4F808191818D93A3
:104940009C93FE01EB5AFF4F808191810197F1F713
:10495000FE01EB5AFF4F9183808380E060E041E0ED
:104960000E94E71E80E061E041E00E94E71E80E0D7
:1049700062E040E00E94E71E80E063E041E00E94C8
:10498000E71EFE01EF5AFF4F80E090E0A0E2B1E4A5
:1049900080839183A283B3838E01035B1F4FFE014B
:1049A000EF5AFF4F608171818281938120E030E076
:1049B0004AEF54E40E941F02DC01CB01F80180831E
:1049C0009183A283B383FE01E35BFF4F608171811A
:1049D0008281938120E030E040E85FE30E94790328
:1049E000882344F4FE01E55BFF4F81E090E0918372
:1049F000808364C0FE01E35BFF4F6081718182812F
:104A0000938120E03FEF4FE757E40E941903181607
:104A10000CF043C0FE01EF5AFF4F6081718182812B
:104A2000938120E030E040E251E40E941F02DC016B
:104A3000CB018E01055B1F4FBC01CD010E944900D7
:104A4000DC01CB01F801918380831FC0FE01E75B8D
:104A5000FF4F88EC90E091838083FE01E75BFF4F7E
:104A6000808191810197F1F7FE01E75BFF4F918310
:104A70008083DE01A55BBF4FFE01E55BFF4F8081B8
:104A80009181019711969C938E93FE01E55BFF4FF8
:104A9000808191810097D1F627C08E01055B1F4F61
:104AA000FE01E35BFF4F60817181828193810E94EF
:104AB0004900DC01CB01F80191838083DE01A95B11
:104AC000BF4FFE01E55BFF4F808191818D939C93E9
:104AD000FE01E95BFF4F808191810197F1F7FE01B3
:104AE000E95BFF4F9183808380E060E041E00E94BA
:104AF000E71E80E061E041E00E94E71E80E062E0A6
:104B000041E00E94E71E80E063E040E00E94E71E73
:104B1000FE01ED5BFF4F80E090E0A0E2B1E4808316
:104B20009183A283B3838E01015C1F4FFE01ED5B75
:104B3000FF4F608171818281938120E030E04AEFF4
:104B400054E40E941F02DC01CB01F80180839183B1
:104B5000A283B383FE01FF9660817181828193817C
:104B600020E030E040E85FE30E94790388232CF4E2
:104B700081E090E09EAF8DAF46C0FE01FF96608160
:104B800071818281938120E03FEF4FE757E40E94DB
:104B90001903181664F5FE01ED5BFF4F608171810A
:104BA0008281938120E030E040E251E40E941F02C4
:104BB000DC01CB01BC01CD010E944900DC01CB012D
:104BC0009EAF8DAF0FC088EC90E09CAF8BAF8BADEC
:104BD0009CAD0197F1F79CAF8BAF8DAD9EAD01976A
:104BE0009EAF8DAF8DAD9EAD009769F736C2FE01C9
:104BF000FF9660817181828193810E944900DC016E
:104C0000CB019EAF8DAF8DAD9EAD9AAF89AF89AD13
:104C10009AAD0197F1F79AAF89AF1FC2FE01EA582A
:104C2000FF4F8081882309F018C280E060E041E0F6
:104C30000E94E71E80E061E041E00E94E71E80E004
:104C400062E041E00E94E71E80E063E040E00E94F5
:104C5000E71E80E090E0A0E2B1E48DAB9EABAFAB8D
:104C6000B8AF6DA97EA98FA998AD20E030E04AEFDA
:104C700054E40E941F02DC01CB0189AB9AABABABC1
:104C8000BCAB69A97AA98BA99CA920E030E040E8D7
:104C90005FE30E94790388232CF481E090E098ABD5
:104CA0008FA73FC069A97AA98BA99CA920E03FEFF3
:104CB0004FE757E40E94190318164CF56DA97EA919
:104CC0008FA998AD20E030E040E251E40E941F023D
:104CD000DC01CB01BC01CD010E944900DC01CB010C
:104CE00098AB8FA70FC088EC90E09EA78DA78DA5ED
:104CF0009EA50197F1F79EA78DA78FA598A901976B
:104D000098AB8FA78FA598A9009769F714C069A9D8
:104D10007AA98BA99CA90E944900DC01CB0198AB20
:104D20008FA78FA598A99CA78BA78BA59CA501975A
:104D3000F1F79CA78BA780E060E041E00E94E71EAE
:104D400080E061E041E00E94E71E80E062E040E038
:104D50000E94E71E80E063E041E00E94E71E80E0E1
:104D600090E0A0E2B1E48FA398A7A9A7BAA76FA18A
:104D700078A589A59AA520E030E04AEF54E40E9486
:104D80001F02DC01CB018BA39CA3ADA3BEA36BA12F
:104D90007CA18DA19EA120E030E040E85FE30E946D
:104DA000790388232CF481E090E09AA389A33FC083
:104DB0006BA17CA18DA19EA120E03FEF4FE757E4BE
:104DC0000E94190318164CF56FA178A589A59AA51C
:104DD00020E030E040E251E40E941F02DC01CB0100
:104DE000BC01CD010E944900DC01CB019AA389A33B
:104DF0000FC088EC90E098A38F8F8F8D98A10197BA
:104E0000F1F798A38F8F89A19AA101979AA389A3FB
:104E100089A19AA1009769F714C06BA17CA18DA10B
:104E20009EA10E944900DC01CB019AA389A389A11C
:104E30009AA19E8F8D8F8D8D9E8D0197F1F79E8FFC
:104E40008D8F80E060E041E00E94E71E80E061E03D
:104E500040E00E94E71E80E062E041E00E94E71E21
:104E600080E063E041E00E94E71E80E090E0A0E285
:104E7000B1E4898F9A8FAB8FBC8F698D7A8D8B8DC2
:104E80009C8D20E030E04AEF54E40E941F02DC01D8
:104E9000CB018D8B9E8BAF8BB88F6D897E898F896F
:104EA000988D20E030E040E85FE30E94790388239A
:104EB0002CF481E090E09C8B8B8B3FC06D897E89C8
:104EC0008F89988D20E03FEF4FE757E40E94190348
:104ED00018164CF5698D7A8D8B8D9C8D20E030E015
:104EE00040E251E40E941F02DC01CB01BC01CD0174
:104EF0000E944900DC01CB019C8B8B8B0FC088EC9E
:104F000090E09A8B898B89899A890197F1F79A8B1E
:104F1000898B8B899C8901979C8B8B8B8B899C8936
:104F2000009769F714C06D897E898F89988D0E94DA
:104F30004900DC01CB019C8B8B8B8B899C89988BE6
:104F40008F878F8598890197F1F7988B8F8780E0FD
:104F500060E040E00E94E71E80E061E041E00E94E6
:104F6000E71E80E062E041E00E94E71E80E063E02F
:104F700041E00E94E71E80E090E0A0E2B1E48B8770
:104F80009C87AD87BE876B857C858D859E8520E05F
:104F900030E04AEF54E40E941F02DC01CB018F8312
:104FA0009887A987BA876F81788589859A8520E057
:104FB00030E040E85FE30E94790388232CF481E02D
:104FC00090E09E838D833FC06F81788589859A8527
:104FD00020E03FEF4FE757E40E94190318164CF505
:104FE0006B857C858D859E8520E030E040E251E434
:104FF0000E941F02DC01CB01BC01CD010E944900CF
:10500000DC01CB019E838D830FC088EC90E09C83F4
:105010008B838B819C810197F1F79C838B838D819E
:105020009E8101979E838D838D819E81009769F774
:1050300014C06F81788589859A850E944900DC01BA
:10504000CB019E838D838D819E819A838983898103
:105050009A810197F1F79A838983DE01AF58BF4F98
:10506000FE01EF58FF4F80818F5F8C93FE01EF5858
:10507000FF4F8081282F30E040E050E0FE01EE58E5
:10508000FF4F80819181A281B381281739074A0798
:105090005B0708F4CDCAC658DF4F0FB6F894DEBFE1
:1050A0000FBECDBFCF91DF911F910F910895DF9378
:1050B000CF93CDB7DEB782E063E041E00E94E71E08
:1050C000CF91DF910895DF93CF93CDB7DEB782E024
:1050D00063E040E00E94E71ECF91DF910895DF93E7
:1050E000CF93CDB7DEB782E064E041E00E94E71ED7
:1050F000CF91DF910895DF93CF93CDB7DEB782E0F4
:1051000064E040E00E94E71ECF91DF910895DF93B5
:10511000CF93CDB7DEB782E063E041E00E94FE1F8F
:10512000CF91DF910895DF93CF93CDB7DEB782E0C3
:1051300064E041E00E94FE1FCF91DF910895DF936C
:10514000CF93CDB7DEB783E065E041E00E94FE1F5C
:10515000CF91DF910895DF93CF93CDB7DEB782E093
:1051600065E041E00E94FE1F82E066E041E00E94AF
:10517000FE1F82E067E041E00E94FE1FCF91DF91B9
:105180000895DF93CF93CDB7DEB782E065E041E0CD
:105190000E94E71ECF91DF910895DF93CF93CDB7A3
:1051A000DEB782E065E040E00E94E71ECF91DF912C
:1051B0000895DF93CF93CDB7DEB782E066E041E09C
:1051C0000E94E71ECF91DF910895DF93CF93CDB773
:1051D000DEB782E066E040E00E94E71ECF91DF91FB
:1051E0000895DF93CF93CDB7DEB782E067E041E06B
:1051F0000E94E71ECF91DF910895DF93CF93CDB743
:10520000DEB782E067E040E00E94E71ECF91DF91C9
:105210000895DF93CF93CDB7DEB70E942729863458
:10522000910518F00E946F280FC00E9427298E3127
:10523000910518F00E948E2A07C00E942729843108
:10524000910510F40E949A2ACF91DF910895DF937F
:10525000CF9300D000D000D0CDB7DEB787E00E945A
:10526000A3229E838D838D819E81CC01A0E0B0E03E
:1052700020E03AE040E050E0BC01CD010E94912ED8
:10528000DC01CB01072E7AE0B695A7959795879517
:105290007A95D1F7702D9C838B838B819C812AE03A
:1052A00030E0B9010E94B02ECB019A8389838981B5
:1052B0009A8126960FB6F894DEBF0FBECDBFCF9170
:1052C000DF910895DF93CF93CDB7DEB780E067E03D
:1052D00040E00E94FE1FCF91DF910895DF93CF93AE
:1052E00000D0CDB7DEB781E00E94A3229A838983E4
:1052F00089819A810F900F90CF91DF910895DF936C
:10530000CF93CDB7DEB70E946E2922E0813092079D
:1053100030F083E066E041E00E94E71E05C083E0D4
:1053200066E040E00E94E71ECF91DF910895DF9391
:10533000CF93CDB7DEB780E061E040E00E94FE1F72
:1053400083E066E041E00E94FE1FCF91DF91089567
:10535000DF93CF93CDB7DEB783E061E040E00E94FA
:10536000FE1F83E060E041E00E94FE1FCF91DF91CD
:105370000895DF93CF93CDB7DEB762970FB6F89459
:10538000DEBF0FBECDBF998B888B6A8B8889882F33
:1053900090E0892F990F990B80658F870E94E21BFF
:1053A0008F850E946E1C88890E94A61C8A890E9493
:1053B000A61C0E94051D80E090E0A0E2B1E48B876E
:1053C0009C87AD87BE876B857C858D859E8520E01B
:1053D00030E04AEF54E40E941F02DC01CB018F83CE
:1053E0009887A987BA876F81788589859A8520E013
:1053F00030E040E85FE30E94790388232CF481E0E9
:1054000090E09E838D833FC06F81788589859A85E2
:1054100020E03FEF4FE757E40E94190318164CF5C0
:105420006B857C858D859E8520E030E040E251E4EF
:105430000E941F02DC01CB01BC01CD010E9449008A
:10544000DC01CB019E838D830FC088EC90E09C83B0
:105450008B838B819C810197F1F79C838B838D815A
:105460009E8101979E838D838D819E81009769F730
:1054700014C06F81788589859A850E944900DC0176
:10548000CB019E838D838D819E819A8389838981BF
:105490009A810197F1F79A83898362960FB6F894FF
:1054A000DEBF0FBECDBFCF91DF910895DF93CF93C5
:1054B00000D000D0CDB7DEB79C838B838B81882F43
:1054C00090E0892F990F990B806589831A820E9439
:1054D000E21B89810E946E1C8B810E94A61C0E9487
:1054E0000C1C89810E94361CCE0102960E94CF1CA2
:1054F0000E94051D8A810F900F900F900F90CF9101
:10550000DF910895DF93CF93CDB7DEB783E067E0F7
:1055100041E00E94FE1FCF91DF910895DF93CF936A
:10552000CDB7DEB783E067E041E00E94E71ECF9190
:10553000DF910895DF93CF93CDB7DEB783E067E0C7
:1055400040E00E94E71ECF91DF910895DF93CF9353
:10555000CDB7DEB72F970FB6F894DEBF0FBECDBF25
:105560008F8782E060E040E00E94E71E82E061E019
:1055700040E00E94E71E82E062E040E00E94E71EF9
:105580008F85282F30E081E090E0B9010E949821BA
:1055900082E062E041E00E94E71E80E090E0A0E04F
:1055A000B0E48B879C87AD87BE876B857C858D85B6
:1055B0009E8520E030E04AEF54E40E941F02DC01A7
:1055C000CB018F839887A987BA876F817885898572
:1055D0009A8520E030E040E85FE30E947903882369
:1055E0002CF481E090E09E838D833FC06F817885AD
:1055F00089859A8520E03FEF4FE757E40E94190321
:1056000018164CF56B857C858D859E8520E030E0F5
:1056100040E251E40E941F02DC01CB01BC01CD013C
:105620000E944900DC01CB019E838D830FC088EC72
:1056300090E09C838B838B819C810197F1F79C8305
:105640008B838D819E8101979E838D838D819E8129
:10565000009769F714C06F81788589859A850E94C3
:105660004900DC01CB019E838D838D819E819A83CD
:10567000898389819A810197F1F79A83898382E0EE
:1056800062E040E00E94E71E2F960FB6F894DEBF5E
:105690000FBECDBFCF91DF910895DF93CF93CDB7EC
:1056A000DEB72F970FB6F894DEBF0FBECDBF8F8742
:1056B00082E060E041E00E94E71E82E061E040E0BD
:1056C0000E94E71E82E062E040E00E94E71E8F85B4
:1056D000282F30E081E090E0B9010E94982182E01B
:1056E00062E041E00E94E71E80E090E0A0E0B0E4CC
:1056F0008B879C87AD87BE876B857C858D859E85D6
:1057000020E030E04AEF54E40E941F02DC01CB01AC
:105710008F839887A987BA876F81788589859A85CD
:1057200020E030E040E85FE30E94790388232CF416
:1057300081E090E09E838D833FC06F81788589856D
:105740009A8520E03FEF4FE757E40E9419031816AF
:105750004CF56B857C858D859E8520E030E040E2B0
:1057600051E40E941F02DC01CB01BC01CD010E946B
:105770004900DC01CB019E838D830FC088EC90E053
:105780009C838B838B819C810197F1F79C838B8316
:105790008D819E8101979E838D838D819E8100974F
:1057A00069F714C06F81788589859A850E944900C0
:1057B000DC01CB019E838D838D819E819A838983B9
:1057C00089819A810197F1F79A83898382E062E067
:1057D00040E00E94E71E2F960FB6F894DEBF0FBE82
:1057E000CDBFCF91DF910895DF93CF93CDB7DEB7D3
:1057F0006C970FB6F894DEBF0FBECDBF80E090E08F
:10580000A0E2B2E4898F9A8FAB8FBC8F698D7A8DBD
:105810008B8D9C8D20E030E04AEF54E40E941F0203
:10582000DC01CB018D8B9E8BAF8BB88F6D897E8910
:105830008F89988D20E030E040E85FE30E94790393
:1058400088232CF481E090E09C8B8B8B3FC06D898A
:105850007E898F89988D20E03FEF4FE757E40E94C3
:10586000190318164CF5698D7A8D8B8D9C8D20E06F
:1058700030E040E251E40E941F02DC01CB01BC0198
:10588000CD010E944900DC01CB019C8B8B8B0FC0AA
:1058900088EC90E09A8B898B89899A890197F1F736
:1058A0009A8B898B8B899C8901979C8B8B8B8B899D
:1058B0009C89009769F714C06D897E898F89988DBE
:1058C0000E944900DC01CB019C8B8B8B8B899C89CE
:1058D000988B8F878F8598890197F1F7988B8F87A1
:1058E00088E30E94A62A8FE00E94A62A81E00E94F7
:1058F000A62A80E090E0A0E0B0E48B879C87AD878B
:10590000BE876B857C858D859E8520E030E04AEFE3
:1059100054E40E941F02DC01CB018F839887A98782
:10592000BA876F81788589859A8520E030E040E8E4
:105930005FE30E94790388232CF481E090E09E834A
:105940008D833FC06F81788589859A8520E03FEF00
:105950004FE757E40E94190318164CF56B857C85B8
:105960008D859E8520E030E040E251E40E941F02D8
:10597000DC01CB01BC01CD010E944900DC01CB015F
:105980009E838D830FC088EC90E09C838B838B81FA
:105990009C810197F1F79C838B838D819E81019778
:1059A0009E838D838D819E81009769F714C06F81DE
:1059B000788589859A850E944900DC01CB019E8308
:1059C0008D838D819E819A83898389819A810197B4
:1059D000F1F79A8389836C960FB6F894DEBF0FBEF9
:1059E000CDBFCF91DF910895DF93CF93CDB7DEB7D1
:1059F00082E060E041E00E94FE1F82E061E041E061
:105A00000E94FE1F82E062E041E00E94FE1F81E0F2
:105A10006FEF0E94DC21CF91DF910895DF93CF9348
:105A200000D00F92CDB7DEB78A836B838A8188233B
:105A300019F48B81898303C08B81805C8983898180
:105A40008068898389810E94A62A0F900F900F9009
:105A5000CF91DF910895DF93CF93CDB7DEB727972E
:105A60000FB6F894DEBF0FBECDBF8B837D836C83F2
:105A70004E832F838B81882F90E0880F991F880F8A
:105A8000991F880F991F8A838A8180648A838A81FB
:105A90000E94A62A19820EC08981282F30E08C81AD
:105AA0009D81FC01E20FF31F80810E944D2B8981B3
:105AB0008F5F89838981883078F38E816F810E941E
:105AC0000E2D8B810E944D2B27960FB6F894DEBFCA
:105AD0000FBECDBFCF91DF910895DF93CF9300D05C
